:100000000C944A010C94C1110C949A110C94720135
:100010000C9472010C9472010C9460080C9472019F
:100020000C9472010C9472010C9472010C94720184
:100030000C9472010C9472010C9472010C94720174
:100040000C9450110C9472010C94430E0C941D0EE0
:100050000C9472010C9472010C9472010C94720154
:100060000C9472010C94720100407A10F35A00A0B3
:10007000724E18090010A5D4E80000E87648170071
:1000800000E40B54020000CA9A3B000000E1F505B1
:10009000000080969800000040420F000000A086FB
:1000A00001000000102700000000E803000000002D
:1000B0006400000000000A000000000001000000D1
:1000C00000002C76D888DC674F0823DFC1DFAE59EB
:1000D000E1B1B796E5E3E453C63AE651997696E87E
:1000E000E6C28426EB898C9B62ED407C6FFCEFBC02
:1000F0009C9F40F2BAA56FA5F490055A2AF75C932D
:100100006B6CF9676DC11BFCE0E40D47FEF520E662
:10011000B500D0ED902E0300943577050080841E45
:10012000080000204E0A000000C80C333333330FA0
:10013000986E12831141EF8D2114893BE65516CF3D
:10014000FEE6DB18D1844B381BF77C1D901DA4BB49
:10015000E424203284725E228100C9F124ECA1E5FE
:100160003D276364696E6F70737578585B003C71EE
:100170002025643E003C512025643E0025643B253B
:10018000643B25643B25643B25643B25730A000AD8
:1001900000256400200025640053656E736F722093
:1001A0002564202D2025643A20000A2020202020CC
:1001B0002020202020202020202062656B616E6E90
:1001C000742020726576657273650A000000000075
:1001D00023002600290052657365742061757367DA
:1001E0006566C3BC6872740A0052657365743F0A21
:1001F000003C583E003C5125642025642025643E87
:10020000003C583E003C4F3E003C583E003C4F3EB8
:10021000003C70303E3C322C3447687A2D3E4742D9
:100220004D3E3C4E303A2053455249414C3E3C589D
:100230003E3C583E003C303E003C583E003C583E60
:100240000000000000240027002A00000000002514
:100250000028002B00040404040404040402020225
:1002600002020203030303030301020408102040F7
:100270008001020408102001020408102000000080
:100280000800020100000304070000000000000055
:100290000000CF1411241FBECFEFD8E0DEBFCDBFCA
:1002A00024E0AAE6B1E001C01D92AA37B207E1F747
:1002B00011E0A0E0B1E0ECE7F2E402C005900D929D
:1002C000AA36B107D9F711E0CAE4D1E004C02197FA
:1002D000FE010E94CF1BC934D107C9F70E94CD137C
:1002E0000C943C210C9400008091A90184608093BF
:1002F000A9018091AA0180788093AA01E091AC01C4
:10030000F091AD01309709F009940895E9EAF1E020
:100310008081877F8F7E80831092A5011092A60135
:100320001092A7011092A8010E94531060939201AD
:1003300070939301809394019093950110928B0197
:1003400010928C0110928D0110928E0143E050E0CA
:1003500060E070E08FE891E00C94361BE0919F0123
:10036000F091A0010280F381E02D309709F009940B
:1003700008959C0180919F019091A001821793079D
:1003800051F09091A9019F719093A9013093A00120
:1003900020939F0105C08091A901805E8093A901EF
:1003A000E0919F01F091A0010190F081E02D309744
:1003B00009F009950E9453106093A1017093A20166
:1003C0008093A3019093A40108950F931F930E941B
:1003D00053100091A1011091A2012091A30130912D
:1003E000A401DC01CB01801B910BA20BB30B20916C
:1003F000AA012077203729F000E117E220E030E061
:1004000004C000E61AEE20E030E0081719072A07BA
:100410003B0730F481E191E01F910F910C94B901F9
:100420001F910F9108959C01FC0197FD379683E081
:10043000F595E7958A95E1F7C90168E070E00E94BB
:10044000A71B61E070E002C0660F771F8A95E2F794
:10045000DF01A659BE4F8C9190E08623972341E09F
:100460008617970709F040E0E258FD4F808190E041
:10047000862397238617970711F481E048272F5F7B
:100480003F4F411118C03F932F938EE691E09F9309
:100490008F931F9288E78F938EEB92E09F938F93B9
:1004A0000E9406168DB79EB708960FB6F8949EBFA9
:1004B0000FBE8DBF17C03F932F9385E791E09F93A9
:1004C0008F931F9288E78F938EEB92E09F938F9389
:1004D0000E9406168DB79EB708960FB6F8949EBF79
:1004E0000FBE8DBF81E008950F931F930E9453109C
:1004F00000919B0110919C0120919D0130919E01E2
:10050000DC01CB01801B910BA20BB30B8B3491054B
:10051000A105B10508F43CC00E94531060939B01F3
:1005200070939C0180939D0190939E01809179022C
:10053000882319F081508093790280917902837029
:1005400061E009F460E086E00E94750E80917A0215
:10055000882319F0815080937A0280917A02837007
:1005600061E009F460E085E00E94750E80917B02F5
:10057000882319F0815080937B0280917B028370E5
:1005800061E009F460E084E01F910F910C94750E16
:100590001F910F910895CF93DF9300D0CDB7DEB7B1
:1005A0009C012D7F2115310571F420917A022111D2
:1005B00003C024E020937A0289839A830E94740204
:1005C00089819A8119C02130310541F42091790245
:1005D0002111F2CF24E020937902EECF85369105E8
:1005E0005CF020917B022111E7CF2CE9280F220F2C
:1005F000220F20937B02E0CF20E030E0232B31F06C
:100600000F900F90DF91CF910C9400000F900F90FE
:10061000DF91CF9108950F931F93CF93DF938C01B8
:10062000FC01D2818091A90180FF04C0DF3F09F065
:1006300054C00FC0D11103C0D09190010AC0DF3F58
:1006400041F08D2F90E003960E94461B8F3F09F0EA
:10065000D82F80918F01F8018083438142FD06C02D
:10066000469546954695C7E0C40F01C0C0E280E0BC
:1006700090E00E94CB02299883E092E00197F1F785
:100680006EE080E20E94DB0B8BE891E00197F1F7CE
:100690006D2F8AE20E94DB0B6D2F80E30E94DB0B43
:1006A00081EE0E94F90BDF3F11F080EA01C080EB80
:1006B0004C2FC13208F040E220E0B8010E948E0BBE
:1006C000299A00E010E08FEF0E94F90BC82F807389
:1006D00031F401501109B9F702C0C0E019C02998DE
:1006E00060E387E20E94DB0BC4FF03C081EE0E943F
:1006F000F90B0E94EC0BC5FBCC27C0F991E0DF3F62
:1007000009F090E0C92B21F485E690E00E94CB022D
:100710008C2FDF91CF911F910F9108952091A90106
:1007200022FD0C940B0380E008950F931F930E9409
:10073000531000918B0110918C0120918D0130910B
:100740008E01DC01CB01801B910BA20BB30B813816
:100750009F44A241B10520F10E94531060938B0188
:1007600070938C0180938D0190938E0110920704F9
:100770008FEF8093080480930C0484E180930B0432
:1007800080910A04807E836080930A046DE571E0A5
:1007900086E094E00E9487081F910F910C940B0350
:1007A0001F910F9108958091AA01982F907790370B
:1007B00059F0982F92959F709F5F97709295907FB8
:1007C0008F78892B8093AA018091A9018B7F8F7EDE
:1007D0008093A90187E690E00E94CB0229986CE003
:1007E00080E20C94DB0BCF93219A229ACFB7F89436
:1007F00080918A01811127C0EFE5F2E08491E3E75F
:10080000F2E09491E82FF0E0EE0FFF1FEF5BFD4F59
:10081000A591B491EC91E92321F461E08AE00E9472
:10082000750E61E08AE00E94A50E8CB580618CBDDA
:100830008CB580648CBD61E08DE00E94A50E61E006
:100840008BE00E94A50E80918A018F5F80938A01C0
:10085000CFBF29982A9A6EE080E20E94DB0B65E008
:1008600070E080E090E00E94191063E083E20E9453
:10087000DB0B6FE584E20E94DB0B6CE485E20E94F7
:10088000DB0B63E286E20E94DB0B63E780E50E94FC
:10089000DB0B66E08DE30E94DB0B0E94C00B88231C
:1008A00009F448C062E082E20E94DB0B60E081E272
:1008B0000E94DB0B63E08CE30E94DB0B8FEF8093E5
:1008C000030120E045E063E071E08BE20E948E0BC3
:1008D00020E045E063E071E08AE20E948E0B20E0B8
:1008E00045E063E071E080E30E948E0B82EE0E949F
:1008F000F90B81EE0E94F90B60E787E20E94DB0BA7
:100900008091A90180618093A901109290011092B9
:10091000910110928F011092100163E082E20E9417
:10092000DB0B61E081E20E94DB0B0E94EC0B88E0B4
:1009300091E006C087E690E00E94CB028CE091E057
:10094000CF910C94B901AF92BF92CF92DF92EF9208
:10095000FF920F931F93CF93DF937C0182E090E08F
:100960000E94CB02F70184818770813009F070C04A
:10097000218130E08681843018F021503F4F02C041
:10098000280F311D6901F1E0CF1AD108E601D7FC2B
:10099000279683E0D595C7958A95E1F7FE01E25643
:1009A000FD4F2081C60168E070E00E94A71B01E0B6
:1009B00010E002C0000F111F8A95E2F7822F90E02D
:1009C000802391238017910789F0622F602B608329
:1009D000CE0183569E4F0E945E1BFE01E258FD4FE2
:1009E0006081CE0183549E4F0E945E1BC7010E940E
:1009F0006D0D5C01C659DE4F009709F457C0FC012C
:100A000001900020E9F7BF01681B790B80E090E0BE
:100A10000E94021D7C01009709F448C0FC0110826D
:100A2000B5010E94DA1DC7010E944515672B682B8E
:100A3000692B19F48881082B03C00095888108234D
:100A40000883C6010E941302C7010E946A1C31C0BC
:100A5000C7010E946D0DF70124819F938F938581BB
:100A60001F928F9324FB882780F91F928F93277002
:100A70001F922F9386811F928F9381811F928F9354
:100A80008CE791E09F938F931F9288E78F938EEB73
:100A900092E09F938F930E9406168DB79EB7429661
:100AA0000FB6F8949EBF0FBE8DBF03C0E12CF12C92
:100AB000C1CF8EEB92E00E945B0D81E0DF91CF9180
:100AC0001F910F91FF90EF90DF90CF90BF90AF906C
:100AD00008953F924F925F926F927F928F929F9272
:100AE000AF92BF92CF92DF92EF92FF920F931F933C
:100AF000CF93DF9300D0CDB7DEB78091A90184FFFB
:100B00009FC20E9453100091920110919301209175
:100B1000940130919501DC01CB01801B910BA20B5C
:100B2000B30B813A9B4BAD40B10590F00E9453103E
:100B30006093920170939301809394019093950137
:100B40000E94C00B811104C08CE091E00E94B901A9
:100B500006E069E1D62E78E1C72EBB24B3941FEFDF
:100B6000E0E0EE2EE0E0FE2E21E041E060E070E00B
:100B700087E10E948E0B80FD63C2015009F460C2C0
:100B800081E090E00E94CB0221E041E060E070E073
:100B900080E60E948E0B982E90E2981720F482EE49
:100BA0000E94F90B912C21E0492D67E274E081E667
:100BB0000E948E0B60E487E20E94DB0B90912A0476
:100BC000292F2695269526952A3108F029E192FDB0
:100BD00003C087E0820F01C080E280902B047091F7
:100BE0002C043090280470902704A09029049816B3
:100BF00019F08CE690E005C09370923029F08DE6F4
:100C000090E00E94CB02B0CF80918F01381651F056
:100C1000832D90E0672D039629837A830E945E1BC3
:100C20007A812981382D37708091AA01806880935C
:100C3000AA0180918F01A812DEC040912A04842F5E
:100C40008695869586958A3108F089E158E0859FDA
:100C5000C00111244770842B80932A04E22FF0E016
:100C6000E95DFB4F178280912B0483FF1BC081E25B
:100C7000E7E2F4E0A6E0B4E001900D928A95E1F796
:100C800080910A04877F806180930A04A092070400
:100C90003092080486E094E039837A830E948E03C0
:100CA0007A81398180912B0484FD98C0333009F01A
:100CB00095C090912C049F3029F068F1923108F48E
:100CC00053CF29C02091280410922804209329048E
:100CD00010932D0490932C04807E836080932B04CA
:100CE0006DE571E087E294E00E94870880912A0414
:100CF0008770806180932A0480912B048F71806CAF
:100D000080932B04B0922E0410922F0487E294E07B
:100D10000E94730829CF733009F028C180917C02AA
:100D200090917D02181619060CF400C180917C0286
:100D300090917D02009761F540E050E020E030E0C6
:100D4000FA01E256FD4F608170E0022E02C07595F7
:100D500067950A94E2F760FD0DC0CA0143E0880F71
:100D6000991F4A95E1F7820F931F019627E030E023
:100D700040E250E02F5F3F4F273031050CF34F5FCB
:100D80005F4F40325105D4F290937D0280937C02F4
:100D900060917C0270917D02CB0101978E3F91059D
:100DA000A8F4109207043092080410930C0484E015
:100DB00080930B0480910A04807E836080930A04F0
:100DC00086E094E00E947B080E940B0310927D0253
:100DD00010927C020E94BC088111C6CE87E294E08A
:100DE0000E94A304E114F10409F4BECE87E294E06A
:100DF0000E940000B9CE9FEFA91280C0333009F0E5
:100E00006FC09091A90192FF68C0773009F065C06A
:100E100080919001381609F4A7CE0E94531040909B
:100E2000A5015090A6016090A7017090A801DC0177
:100E3000CB0184199509A609B70980319742A1050C
:100E4000B10520F18091A90183FD8ECE90918F0193
:100E50009111ADC01092AB018091A901877F809361
:100E6000A901A090AB018FEFA81609F47DCE0E94D6
:100E700053106093A5017093A6018093A7019093EE
:100E8000A80180919101A812A09291010E94531093
:100E90006093A5017093A6018093A7019093A80188
:100EA0000E9453107370882799270E94191060912F
:100EB0009101109207043092080410930C0488E00A
:100EC00080930B0480910A04807E836080930A04DF
:100ED00086E094E00E947B0826C0783009F444CE76
:100EE00090919001791206C0381621F08091A901E5
:100EF00082FD9FC0333009F071CF36CE8091A901B9
:100F000082FF32CE333069F47851723050F40E944F
:100F10000A0E8E3F31F061E0680F87E294E00E9494
:100F20007B0887E294E00E940B031ECE0197AC0180
:100F30004770552721E030E002C0220F331F4A9549
:100F4000E2F753E0959587955A95E1F7FC01E25653
:100F5000FD4F808190E0822393238217930709F04D
:100F6000E5CE10927D0210927C02E0CE783181F4C1
:100F7000109207043092080410930C04D0920B04D2
:100F800080910A04807E836080930A0461E0A0CF90
:100F9000793109F01FCF8091A90183FFE5CD877FCB
:100FA0008093A9010E940A0E8093AB01DDCD886079
:100FB0008093A901A092AB0110920704109208043B
:100FC000A0920C04C0920B0480910A04807E83607E
:100FD00080930A0461E086E094E00E947B080E940E
:100FE0000B030E9453102B013C0110922C04A12CE6
:100FF0000E945310DC01CB0184199509A609B70999
:10100000803D9740A105B10508F026CFA11024CF5F
:101010000E946905A8950E94740280912B04877034
:10102000833031F7AA24A39480912C048931F9F6F6
:10103000DFCF87E294E039830E940B0339815ACFD6
:101040000F900F90DF91CF911F910F91FF90EF9034
:10105000DF90CF90BF90AF909F908F907F906F90D8
:101060005F904F903F90089590919A01891739F1C0
:10107000682F80939A0110920704109208048FEF52
:1010800080930C0485E080930B0480910A04807E99
:10109000836080930A0486E094E00E947B080E94AB
:1010A000A30480919A01882351F00E945310609309
:1010B00096017093970180939801909399010895F8
:1010C0001F920F920FB60F9211240F900FBE0F9028
:1010D0001F9018958091780281FD04C08160826024
:1010E000809378020895FC012281211102C00C94A2
:1010F000A3040C948E03FC01838187708860838332
:1011000084818F71806284836783CF0108950F93F8
:101110001F93CF93DF93EC016115710561F0FB0123
:1011200001900020E9F73197E61BF70BE931F10553
:1011300018F0E9E101C0E0E00E2F10E0C80123E063
:10114000880F991F2A95E1F79B819770892B8B83D4
:101150008C818F718C83EE2329F0A801CE01079634
:101160000E94E11DFE01E00FF11F1782CE01DF9109
:10117000CF911F910F9108950F931F93CF93DF93FA
:1011800090912C04C0912804C111B3C09D3079F412
:101190008BE090E00E94CB0298E088E10FB6F894D3
:1011A000A895809360000FBE90936000FFCF9B31A5
:1011B00009F4C0C0963099F490912E0481E09923EF
:1011C00019F09D3409F080E08093770241E050E00F
:1011D00063E071E087E792E00E944E1BABC0933161
:1011E00029F48CE090E00E94CB02A4C0923161F51A
:1011F0000E9453100091A1011091A2012091A3011E
:101200003091A401AB01BC01401B510B620B730B6D
:1012100010920704109208048FEF80930C0486E16B
:1012200080930B0483EA80930A04809109048770F9
:1012300080628093090440930D0450930E046093E0
:101240000F047093100472C0913011F580E090E0AB
:10125000892B09F46FC080912B0482958695877045
:10126000853049F460912E0470912F0480913004F0
:10127000909131040AC0811105C08EE294E00E9471
:10128000451503C060E070E0CB010E94000052C031
:101290009A3059F580912E04833409F04BC08DE0CB
:1012A00090E00E94CB02C3E0D0E06FEFCE010E943D
:1012B0005E1B2196C33081E0D807B9F7109207046E
:1012C000109208048FEF80930C048AE080930B0443
:1012D00080910A04807E836080930A0461E371E058
:1012E00086E094E00E94870823C081E09C3121F5CC
:1012F00024C09A3109F50E940A0E10920704C09387
:1013000008049FEF90930C049BE190930B04909141
:101310000904977098609093090493E290930A04EB
:1013200091E0823008F490E090930D0486E094E020
:101330000E94730881E001C080E0DF91CF911F918E
:101340000F910895BF92CF92DF92EF92FF920F9389
:101350001F93CF93DF93CDB7DEB76B970FB6F8949B
:10136000DEBF0FBECDBFA8950E94740280919A0186
:10137000882309F10E945310009196011091970162
:101380002091980130919901DC01CB01801B910BD8
:10139000A20BB30B81369A4EA105B10508F0BAC174
:1013A0000AC089E693E00E943D0C90917602933644
:1013B00048F01092760289E693E00E945F0C892B38
:1013C00081F794C1292F30E0F901EE5EFD4F8A309C
:1013D00009F0E4C01082809112028C3329F482E17A
:1013E00092E00E94E811D4C0AE01465E5F4F64E314
:1013F00071E082E192E00E946C15E12C00E010E0C7
:10140000F12CC12CD12C009709F48BC006301105AA
:1014100009F48AC00330110521F13CF401301105B3
:1014200079F00230110589F006C00430110541F150
:101430000530110551F10E94271580934A0465C0BB
:101440000E94271580934E0460C00E942715E82E45
:10145000982F977080914C04887F892B80934C043F
:1014600054C020914C04277FB22E0E942715892B4F
:1014700011F480E001C088E0B82AB0924C0445C065
:101480000E94271580934D0440C034E0E3122AC027
:10149000F12CFC0120812223C1F12A3314F42053C2
:1014A00005C0213614F0275501C02753422F42951D
:1014B000407F0296FC01319720812A3314F4205397
:1014C00005C0213614F0275501C0275330E0240F02
:1014D000311DE1E0F0E0EC0FFD1FEF0DF11D208369
:1014E000F394D7CFFC0101900020E9F7E81BE2500C
:1014F0009C012E0F311DF90120812D3009F410823D
:1015000020812A3009F410826C010F5F1F4FAE0159
:10151000465E5F4F64E371E080E090E00E946C15EE
:1015200072CF05301105A4F11092490410924804BD
:1015300080914C048F7E80934C0434E0E3121DC0F4
:101540004F2D4A3108F049E150E09A0193E0220F13
:10155000331F9A95E1F790914B049770292B2093B4
:101560004B048F71806C80934C04BE016F5F7F4F82
:101570008FE494E00E94D11D05C0B60188E494E098
:101580000E94870811E083E090E00E94CB0201C036
:1015900010E010927602111142C0A8C080839F5FB4
:1015A000909376028C3339F466E371E08EEA91E031
:1015B0000E94DA1D9BC08E3379F48091AE018C338A
:1015C00009F094C08EEA91E00E94E811882309F4A2
:1015D0008DC0109276028AC0EEEAF1E0DF010D9034
:1015E0000020E9F71197AE5AB140A336B10508F0D3
:1015F0007DC0282F082E000C330B3F938F93FF9351
:10160000EF9388E391E09F938F93FF93EF930E9472
:10161000F01D0FB6F894DEBF0FBECDBF67C081E2EC
:10162000E8E4F4E0A7E2B4E001900D928A95E1F7D6
:1016300080912904811156C080912B0483FF17C02B
:1016400091E2E7E2F4E0A6E0B4E001900D929A9511
:10165000E1F7877F806180930A04109207048091EC
:1016600028048093080486E094E00E94A3048091FB
:101670002B048770833069F580912C048230C1F48B
:1016800010920704109208049FEF90930C0480932B
:101690000B0480910A04807E836080930A046DE3CA
:1016A00071E086E094E00E9487080E94A3041EC0B7
:1016B000853061F48EE294E00E94271521E00197C5
:1016C00009F020E0822F0E94340810C00E94BC085C
:1016D0000DC080E090E0892B49F087E294E00E9401
:1016E000000004C087E294E00E948E030E94AE01D5
:1016F0000E9469056B960FB6F894DEBF0FBECDBF92
:10170000DF91CF911F910F91FF90EF90DF90CF90DD
:10171000BF90089580E00E9434084DCE91E59CBDB5
:1017200091E09DBD2A98E3E2F0E03197F1F78EBD9C
:1017300000000DB407FEFDCF8EB5FB019FEF4150B9
:10174000C8F0222361F09EBD00000DB407FEFDCF5E
:101750008EB56115710599F380833196F0CFDF0165
:10176000119680818EBD00000DB407FEFDCF8EB5B1
:10177000FD01E5CF2A9AE3E2F0E03197F1F7089511
:10178000CF9321E041E060E070E086E00E948E0BA4
:10179000C82F21E041E060E070E085E00E948E0B00
:1017A00021E08C3409F020E081E0C33209F080E0D0
:1017B0008223CF910895CF93DF931F92CDB7DEB7E9
:1017C000698320E041E0BE016F5F7F4F0E948E0B76
:1017D0000F90DF91CF9108956FE080E20E94DB0BC4
:1017E000609110016F3F19F08AE20E94DB0B299A89
:1017F000089520E040E060E070E00C948E0BCF9202
:10180000DF92EF92FF920F931F93CF93DF936C01C0
:101810007A018B01C0E0D0E0CE15DF0589F0D80158
:101820006D918D01D601ED91FC910190F081E02D3B
:10183000C6010995892B11F47E0102C02196ECCFD7
:10184000C701DF91CF911F910F91FF90EF90DF9033
:10185000CF900895089580E090E00895FC01538DA5
:10186000448D252F30E0842F90E0821B930B54177A
:1018700010F0CF96089501970895FC01918D828D07
:10188000981761F0828DDF01A80FB11D5D968C91D4
:10189000928D9F5F9F73928F90E008958FEF9FEFDF
:1018A0000895FC01918D828D981731F0828DE80F9B
:1018B000F11D858D90E008958FEF9FEF0895FC0155
:1018C000918D228D892F90E0805C9F4F821B910922
:1018D0008F739927089589E693E00E945F0C21E0B9
:1018E000892B09F420E0822F0895FC01848DDF010B
:1018F000A80FB11DA35ABF4F2C91848D90E0019683
:101900008F739927848FA689B7892C93A089B18971
:101910008C9180648C93938D848D981306C002887B
:10192000F389E02D80818F7D80830895EF92FF926F
:101930000F931F93CF93DF93EC0181E0888F9B8DF2
:101940008C8D981305C0E889F989808185FD24C0B4
:10195000F62E0B8D10E00F5F1F4F0F731127E02E37
:101960008C8DE8120CC00FB607FCFACFE889F98914
:10197000808185FFF5CFCE010E94750CF1CF8B8D54
:10198000FE01E80FF11DE35AFF4FF0820B8FEA8949
:10199000FB898081806207C0EE89FF896083E889C6
:1019A000F98980818064808381E090E0DF91CF912C
:1019B0001F910F91FF90EF900895CF93DF93EC016B
:1019C000888D8823C9F0EA89FB89808185FD05C05F
:1019D000A889B9898C9186FD0FC00FB607FCF5CF99
:1019E000808185FFF2CFA889B9898C9185FFEDCFE1
:1019F000CE010E94750CE7CFDF91CF91089580E072
:101A000090E0892B29F00E946B0C81110C9400004E
:101A10000895833081F028F4813099F08230A1F06C
:101A200008958730A9F08830B9F08430D1F48091DE
:101A300080008F7D03C0809180008F77809380002D
:101A4000089584B58F7702C084B58F7D84BD0895D5
:101A50008091B0008F7703C08091B0008F7D80931C
:101A6000B00008953FB7F894809172049091730488
:101A7000A0917404B091750426B5A89B05C02F3FB2
:101A800019F00196A11DB11D3FBFBA2FA92F982FA4
:101A90008827820F911DA11DB11DBC01CD0142E01F
:101AA000660F771F881F991F4A95D1F708950895EB
:101AB00008950E94CC1D009769F0FC010190002060
:101AC000E9F73197AF01481B590BBC0189E693E058
:101AD0000C94FF0B80E090E008950F931F93CF9339
:101AE000DF93EC018C8182958695877091F44B8110
:101AF00046954695469550E0BE01695F7F4F86E367
:101B000093E00E94E11DEB81E695E695E695F0E015
:101B100077C0813031F48F814AE066E373E090E072
:101B200007C0823041F44AE066E373E08F81988514
:101B30000E94931568C0833041F44AE066E373E085
:101B40008F8198850E94EC155EC0843051F46F81BE
:101B5000788589859A852AE046E353E00E949E15A0
:101B600052C0853051F46F81788589859A852AE045
:101B700046E353E00E94CA1546C0873071F42B85B6
:101B8000293008F028E06F81788589859A8506E3F9
:101B900013E042E00E94071536C08630A1F520E030
:101BA000EB81E695E695E6952E1738F5E22FF0E005
:101BB000AF01440F551FDA01AA5CBC4FEC0FFD1FAB
:101BC0008781082E000C990B34E0959587953A95FE
:101BD000E1F78F708A3010F4805D01C0895C8C93CE
:101BE000DA01A95CBC4F87818F708A3010F4805D68
:101BF00001C0895C8C932F5FD3CFF0E0EE0FFF1F05
:101C0000EA5CFC4F108286E393E0DF91CF911F9155
:101C10000F91089580912B0482958695877081306D
:101C200019F480912E040895811105C08EE294E08C
:101C30000E942715089580E008951F920F920FB615
:101C40000F9211242F933F934F935F936F937F9342
:101C50008F939F93AF93BF93EF93FF9389E693E0A6
:101C60000E94750CFF91EF91BF91AF919F918F9161
:101C70007F916F915F914F913F912F910F900FBE88
:101C80000F901F9018951F920F920FB60F9211246C
:101C90002F938F939F93EF93FF93E0917903F091AC
:101CA0007A038081E0917F03F091800382FD12C06E
:101CB0009081809182038F5F8F73209183038217BD
:101CC00051F0E0918203F0E0E759FC4F958F80934B
:101CD000820301C08081FF91EF919F918F912F919D
:101CE0000F900FBE0F901F9018951F93CF93DF9307
:101CF000282F30E0F901E358FD4F8491F901E759AD
:101D0000FD4FD491F901EB5AFD4FC491CC23C9F09A
:101D1000162F81110E94090DEC2FF0E0EE0FFF1F2E
:101D2000E55BFD4FA591B4918FB7F894111105C0F3
:101D30009C91ED2FE095E92302C0EC91ED2BEC9303
:101D40008FBFDF91CF911F910895CF93DF9390E0E4
:101D5000FC01E759FD4F2491FC01EB5AFD4F8491A2
:101D6000882361F190E0880F991FFC01EF5BFD4F24
:101D7000C591D491FC01E55BFD4FA591B491611132
:101D800009C09FB7F8948881209582238883EC91BD
:101D90002E230BC0623061F49FB7F8943881822FF4
:101DA000809583238883EC912E2B2C939FBF06C0B4
:101DB0008FB7F894E8812E2B28838FBFDF91CF91C6
:101DC00008952F923F924F925F926F927F928F92DF
:101DD0009F92AF92BF92CF92DF92EF92FF920F93BA
:101DE0001F93CF93DF9300D01F92CDB7DEB78AEA5F
:101DF00091E09F938F931F9288E78F938EEB92E0F1
:101E00009F938F930E9406168EEB92E00E945B0DCB
:101E100089E693E00E94DD0C8EE7A82E82E0B82EC2
:101E20009EE9C92E92E0D92E0F900F900F900F903F
:101E30000F900F9048E050E05B834A832DEBE22E39
:101E4000FF24F3940EEB12E088248394912C380144
:101E500044E9242E41E0342EC7010E94461BD501DF
:101E60008C93C70180970E94461BF60180838A816C
:101E70009B8107972A813B814A815B8141155140B3
:101E800011F42EEF30E03F932F939F938F93A9E9A6
:101E9000B1E0BF93AF931F9288E78F931F930F9387
:101EA0000E9406168EEB92E00E945B0D0FB6F8942E
:101EB000DEBF0FBECDBF412C512C48E7D6018C911F
:101EC00090E0B401042C02C0660F771F0A94E2F779
:101ED0008623972351E08617970709F050E01F9259
:101EE0005F93A6E9B1E0BF93AF931F924F931F9307
:101EF0000F9349830E9406168EEB92E00E945B0DC1
:101F0000FFEF4F1A5F0A0FB6F894DEBF0FBECDBFCA
:101F1000498198E04916510489F63F922F921F9209
:101F200088E78F937F926F920E9406168EEB92E065
:101F30000E945B0D0F900F900F900F900F900F90DD
:101F4000412C512C48E7D5018C9190E0B401042C30
:101F500002C0660F771F0A94E2F78623972351E0A9
:101F60008617970709F050E01F925F93A1E9B1E04F
:101F7000BF93AF931F924F931F930F9349830E9478
:101F800006168EEB92E00E945B0DFFEF4F1A5F0A80
:101F90000FB6F894DEBF0FBECDBF498198E0491659
:101FA000510489F68FE891E09F938F931F9288E701
:101FB0008F937F926F920E9406168EEB92E00E94A2
:101FC0005B0D89E693E00E94DD0CAFEFEA1AFA0A96
:101FD000BFEFAB1ABB0AEFEFCE1ADE0A4A815B8174
:101FE000485F5F4F5B834A830F900F900F900F9075
:101FF0000F900F905DEDE51651E0F50609F02CCF3E
:1020000062E083E00F900F900F90DF91CF911F91CE
:102010000F91FF90EF90DF90CF90BF90AF909F9087
:102020008F907F906F905F904F903F902F900C9487
:10203000A50E8F929F92AF92BF92CF92DF92EF92B6
:10204000FF926B017C010E94320D4B015C01C114B7
:10205000D104E104F104F1F00E94320DDC01CB0166
:1020600088199909AA09BB09883E9340A105B105C1
:1020700070F321E0C21AD108E108F10888EE880E59
:1020800083E0981EA11CB11CC114D104E104F10429
:1020900019F7DDCFFF90EF90DF90CF90BF90AF901A
:1020A0009F908F9008952FB7F89460916E0470916F
:1020B0006F0480917004909171042FBF08957F92F6
:1020C0008F929F92AF92BF92CF92DF92EF92FF9248
:1020D0000F931F93CF93DF931092690410926A04B9
:1020E00010926B0410926C0430E8E32E32E0F32E71
:1020F0004CE6C42E42E0D42E58E5A52E52E0B52E73
:10210000C9EED1E068E7962E0EEB12E0F70184915C
:10211000F6017490F5018490882081F081110E946D
:10212000090D882D90E0880F991F84539E4FFC0164
:10213000A591B4918C91782209F091C080916904A5
:1021400090916A04A0916B04B0916C040196A11D5A
:10215000B11D8093690490936A04A0936B04B093BB
:102160006C048035934CA105B10511F5DF93CF9335
:102170001F929F921F930F930E9406168EEB92E080
:102180000E945B0D89E693E00E94DD0C61E084E033
:102190000E94750E61E086E00E94750E61E085E0A8
:1021A0000E94750E0F900F900F900F900F900F9050
:1021B0008091690490916A04A0916B04B0916C04C1
:1021C0008032914AA740B10509F0A0CFCDE9D1E016
:1021D00060E0CE010E945E1B2196CD3BF1E0DF075F
:1021E000B9F76FEFCE010E945E1B2196CD3D21E035
:1021F000D207B9F786ED91E09F938F931F9288E7FE
:102200008F938EEB92E09F938F930E9406168EEB36
:1022100092E00E945B0D89E693E00E94DD0C0F9036
:102220000F900F900F900F900F90C4E08091790263
:10223000811102C0C09379020E94740280917A02D7
:10224000811102C0C0937A020E94740280917B02C5
:10225000811102C0C0937B020E947402E7CF0E94EA
:1022600053106B017C010E945310DC01CB018C19CF
:102270009D09AE09BF090A97A105B10518F40E948E
:10228000A209F1CFDF91CF911F910F91FF90EF90B5
:10229000DF90CF90BF90AF909F908F907F900895E8
:1022A0001F920F920FB60F9211242F933F938F938B
:1022B0009F93AF93BF9380916E0490916F04A09110
:1022C0007004B091710430916D0423E0230F2D3719
:1022D00020F40196A11DB11D05C026E8230F02962A
:1022E000A11DB11D20936D0480936E0490936F0423
:1022F000A0937004B0937104809172049091730460
:10230000A0917404B09175040196A11DB11D809334
:10231000720490937304A0937404B0937504BF91F6
:10232000AF919F918F913F912F910F900FBE0F9082
:102330001F9018951F920F920FB60F9211242F9392
:102340003F934F935F936F937F938F939F93AF933D
:10235000BF93EF93FF93E0911701F0911801099556
:10236000FF91EF91BF91AF919F918F917F916F916D
:102370005F914F913F912F910F900FBE0F901F9043
:1023800018951F920F920FB60F9211242F933F931F
:102390004F935F936F937F938F939F93AF93BF936D
:1023A000EF93FF93E0911501F09116010995FF91CC
:1023B000EF91BF91AF919F918F917F916F915F91BD
:1023C0004F913F912F910F900FBE0F901F90189536
:1023D0009F92AF92BF92CF92DF92EF92FF920F93B4
:1023E0001F93CF93DF9300D000D000D0CDB7DEB7DE
:1023F0008C0183E090E00E94CB02D80111969C9161
:102400009A3519F48DE392E0F2C0913509F046C097
:10241000D12C00E010E0EE24E394F12CC801877089
:102420009927F70102C0EE0FFF1F8A95E2F7CF014F
:10243000F801B3E0F595E795BA95E1F7E256FD4F5F
:10244000208130E0282339232817390741F4C801B7
:102450000E941302D82E8EEB92E00E945B0D0F5F5C
:102460001F4F0E3F1105D1F6D11025C189E392E02F
:102470009F938F931F9288E78F938EEB92E09F93A9
:102480008F930E9406168EEB92E00E945B0D0F90D8
:102490000F900F900F900F900F900DC19536C9F4CB
:1024A0000DE911E060E0C8010E945E1B0F5F1F4F45
:1024B0000D3BF1E01F07B1F76FEFC8010E945E1BF3
:1024C0000F5F1F4F0D3D21E01207B1F785E392E04A
:1024D0008EC0933719F481E192E089C0933509F0F9
:1024E00047C1CE0105969F938F9302979F938F9339
:1024F00002979F938F938EE591E09F938F931F9305
:102500000F930E94131E0FB6F894DEBF0FBECDBF0F
:102510008130910509F485C0039709F0D1C0898104
:102520009A817C01B1E0EB1AF108FA82E982F701A5
:10253000F7FC3796A3E0F595E795AA95E1F78F01AB
:1025400002581D4FD8014C918D819E8162E070E050
:102550000E94A71B9C01C70168E070E00E94A71BB6
:102560002130310531F401C0220F8A95EAF7242B7E
:1025700008C021E030E001C0220F8A95EAF72095DB
:102580002423D8012C93D8016C91461729F0CF0150
:1025900083549E4F0E945E1B29813A81C90168E0E5
:1025A00070E00E94A71B41E050E002C0440F551F9D
:1025B0008A95E2F7C90137FD0796F3E0959587956F
:1025C000FA95E1F7FC01E256FD4F808190E084230B
:1025D00095238417950719F48DE092E008C02F5FCA
:1025E0003F4F30937D0220937C0289E092E09F93DD
:1025F0008F931F9288E78F938EEB92E09F938F9338
:102600000E9406168EEB92E00E945B0D89E693E035
:102610000E94DD0C0F900F900F900F900F900F9075
:10262000A9C049815A81CA0101979A8389839C0173
:1026300097FF02C0295F3F4FE3E035952795EA9564
:10264000E1F7F901E256FD4F408168E070E00E9439
:10265000A71B61E070E002C0660F771F8A95E2F762
:10266000842F90E0862397238617970769F4982F85
:10267000909549234083F901E258FD4F9081892BC1
:10268000808385E092E002C081E092E09F938F9387
:102690001F9288E78F938EEB92E09F938F930E9417
:1026A00006160F900F900F900F900F900F908EEBDB
:1026B00092E00E945B0D89E693E00E94DD0C5AC017
:1026C00060E000E010E0AA24A394B12C45EFE42ED2
:1026D00041E0F42E58E7952E7EEBC72E72E0D72E00
:1026E000C80123E0959587952A95E1F79801277011
:1026F0003327A50102C0440F551F2A95E2F7FC01BC
:10270000E256FD4F208130E0242335230F5F1F4F19
:102710002417350721F5FC01E258FD4F808190E038
:102720008223932341E08217930709F040E01F9230
:102730004F931F930F931F930F93FF92EF921F924C
:102740009F92DF92CF920E9406168EEB92E00E943B
:102750005B0D0FB6F894DEBF0FBECDBF61E00E3F3C
:10276000110509F0BDCF6111A6CF81EF91E080CEB8
:1027700080E001C081E026960FB6F894DEBF0FBE60
:10278000CDBFDF91CF911F910F91FF90EF90DF9020
:10279000CF90BF90AF909F900895789484B5826059
:1027A00084BD84B5816084BD85B5826085BD85B5F5
:1027B000816085BD80916E00816080936E00109273
:1027C00081008091810082608093810080918100EE
:1027D000816080938100809180008160809380007F
:1027E0008091B10084608093B1008091B0008160DD
:1027F0008093B00080917A00846080937A00809109
:102800007A00826080937A0080917A008160809360
:102810007A0080917A00806880937A001092C100DB
:10282000A89580E090E0892B11F00E940000E091D3
:102830007903F0917A0382E08083E0917503F0914F
:1028400076031082E0917703F091780380E1808332
:1028500010928103E0917D03F0917E0386E08083F6
:10286000E0917B03F0917C03808180618083E09123
:102870007B03F0917C03808188608083E0917B03FF
:10288000F0917C03808180688083E0917B03F091EC
:102890007C0380818F7D8083809178028D7F8093FF
:1028A000780280E090E0892B11F00E9400001092E5
:1028B000790210927A0210927B02569A559A549A93
:1028C0000E945310DC01CB018B549109A109B1097D
:1028D00080939B0190939C01A0939D01B0939E01D6
:1028E0000E94740241E050E063E071E087E792E00B
:1028F0000E94361B6FEF81E090E00E945E1B80918A
:10290000AA018F788093AA011092A00110929F01D2
:1029100081E191E00E94B9018AE698E09093AD01CF
:102920008093AC010E9453100E9453100E94AE018C
:102930000E946905C091A901C2FBCC27C0F9A895E6
:102940000E947402CC2381F383E491E00E945B0D2A
:1029500089E693E00E94DD0C8CE090E00E94CB02BF
:102960000E94E10EA8950E94A2090E945F100E9499
:10297000FF0CF9CFCF93DF93FC01108211821282FA
:10298000148215821682DC0117968AE1ED011992F4
:102990008A95E9F782E08383DF91CF910895E9E694
:1029A000F3E01382128288EE93E0A0E0B0E084832B
:1029B0009583A683B78383E291E09183808385EC3E
:1029C00090E09587848784EC90E09787868780ECF9
:1029D00090E0918B808B81EC90E0938B828B82ECEA
:1029E00090E0958B848B86EC90E0978B868B118E94
:1029F000128E138E148E88E494E00E94BA1487E23B
:102A000094E00E94BA1486E094E00C94BA14EF9219
:102A10000F931F93CF93DF93E80147FD02C034E08B
:102A200001C034E1E42F440FFF0BF7FF03C0F19521
:102A3000E195F109E32E022F2E2FAE010E94081816
:102A4000CE01DF91CF911F910F91EF900895FC017E
:102A500088279927E89421912032E9F3293010F052
:102A60002E30C8F32B3241F02D3239F4689404C073
:102A70000E94C215820F911D219120532A30C0F36C
:102A80001EF4909581959F4F08951F93FC019927FF
:102A90008827BC01E89411911032E9F3193010F045
:102AA0001E30C8F31B3251F01D3249F4689406C041
:102AB0000E94AD15610F711D811D911D1191105363
:102AC0001A30B0F33EF490958095709561957F4FE4
:102AD0008F4F9F4F1F910895FA01A191B0810097E8
:102AE00019F41097E1F0CD01DC01CD010D9000202B
:102AF00011F4C00113C0FB012191222319F020150C
:102B0000D9F7F3CFFB012191201519F41E921196EC
:102B100006C02223C1F70D900020A1F7D001FA01D1
:102B2000A193B0830895BB274A3031F4992322F44E
:102B3000BDE2909581959F4F0C94ED15BB272A30EF
:102B400051F4992342F4BDE290958095709561957A
:102B50007F4F8F4F9F4F0C94CB15592F482F372FF6
:102B6000262F660F771F881F991F660F771F881FF4
:102B7000991F620F731F841F951F660F771F881F91
:102B8000991F08957AE0979F902D879F802D910D32
:102B900011240895BB27FA01A62F6217710581053C
:102BA0009105330B30FB66F0AA27660F771F881F4D
:102BB000991FAA1FA21710F0A21B63953850A9F7FE
:102BC000A05DAA3308F0A95DA19336F7B111B193C6
:102BD0001082CA010C948D1ABB27FB015527AA2726
:102BE000880F991FAA1FA41710F0A41B839550519A
:102BF000B9F7A05DAA3308F0A95DA193009779F712
:102C0000B111B1931192CB010C948D1AAEE0B0E0EA
:102C1000ECE0F6E10C947E1B0D891E898F89988D5E
:102C20002EE02C831A83098397FF02C080E090E88E
:102C300001979E838D83AE01455E5F4F698D7A8DCE
:102C4000CE0101960E9436164D815E8157FD0AC065
:102C50002F813885421753070CF49A01F801E20FCF
:102C6000F31F10822E96E4E00C949A1BACE0B0E0C7
:102C7000ECE3F6E10C94701B7C016B018A01FC0112
:102C800017821682838181FFBDC1CE0101964C015E
:102C9000F7019381F60193FD859193FF81916F0177
:102CA000882309F4ABC1853239F493FD859193FFF4
:102CB00081916F01853229F4B70190E00E949D1A3D
:102CC000E7CF512C312C20E02032A0F48B3269F078
:102CD00030F4803259F0833269F420612CC08D3297
:102CE00039F0803339F4216026C02260246023C08B
:102CF000286021C027FD27C030ED380F3A3078F426
:102D000026FF06C0FAE05F9E300D1124532E13C03B
:102D10008AE0389E300D1124332E20620CC08E3292
:102D200021F426FD6BC1206406C08C3611F42068A6
:102D300002C0883641F4F60193FD859193FF81919D
:102D40006F018111C1CF982F9F7D9554933028F446
:102D50000C5F1F4FFFE3F9830DC0833631F08337DB
:102D600071F0833509F05BC022C0F801808189834E
:102D70000E5F1F4F44244394512C540115C0380159
:102D8000F2E06F0E711CF801A080B18026FF03C035
:102D9000652D70E002C06FEF7FEFC5012C870E94A8
:102DA000821A2C0183012C852F77222E17C038011F
:102DB000F2E06F0E711CF801A080B18026FF03C005
:102DC000652D70E002C06FEF7FEFC5012C870E9478
:102DD000771A2C012C852068222E830123FC1BC02E
:102DE000832D90E048165906B0F4B70180E290E0D8
:102DF0000E949D1A3A94F4CFF50127FC859127FE95
:102E000081915F01B70190E00E949D1A31103A94C0
:102E1000F1E04F1A51084114510471F7E5C08436AE
:102E200011F0893639F5F80127FF07C060817181FB
:102E3000828193810C5F1F4F08C060817181072ED2
:102E4000000C880B990B0E5F1F4F2F76722E97FF89
:102E500009C090958095709561957F4F8F4F9F4FDA
:102E60002068722E2AE030E0A4010E94D51AA82E14
:102E7000A81844C0853729F42F7EB22E2AE030E00E
:102E800025C0F22FF97FBF2E8F36C1F018F4883598
:102E900079F0B4C0803719F0883721F0AFC02F2FF8
:102EA0002061B22EB4FE0DC08B2D8460B82E09C0F7
:102EB00024FF0AC09F2F9660B92E06C028E030E09C
:102EC00005C020E130E002C020E132E0F801B7FEA9
:102ED00007C060817181828193810C5F1F4F06C0A2
:102EE0006081718180E090E00E5F1F4FA4010E941D
:102EF000D51AA82EA818FB2DFF777F2E76FE0BC0C3
:102F0000372D3E7FA51450F474FE0AC072FC08C031
:102F1000372D3E7E05C0BA2C372D03C0BA2C01C018
:102F2000B52C34FF0DC0FE01EA0DF11D8081803308
:102F300011F4397E09C032FF06C0B394B39404C0C3
:102F4000832F867809F0B39433FD13C030FF06C099
:102F50005A2CB31418F4530C5B18B32CB31468F444
:102F6000B70180E290E03C870E949D1AB3943C85B3
:102F7000F5CFB31410F43B1801C0312C34FF12C04C
:102F8000B70180E390E03C870E949D1A3C8532FFA8
:102F900017C031FD03C088E790E002C088E590E0EB
:102FA000B7010CC0832F867859F031FF02C08BE245
:102FB00001C080E237FD8DE2B70190E00E949D1ACA
:102FC000A51438F4B70180E390E00E949D1A5A944A
:102FD000F7CFAA94F401EA0DF11D8081B70190E0CA
:102FE0000E949D1AA110F5CF332009F451CEB701EC
:102FF00080E290E00E949D1A3A94F6CFF701868114
:10300000978102C08FEF9FEF2C96E2E10C948C1B0E
:103010004F925F926F927F929F92AF92BF92CF92A8
:10302000DF92EF92FF920F931F93CF93DF93CDB771
:10303000DEB729970FB6F894DEBF0FBECDBF6A0189
:10304000122FB02E2BE3201720F0FF24F394F00E64
:1030500002C0BCE3FB2E0F2D27E0AE014F5F5F4F98
:103060000E949619AC018981982F9970913031F0A6
:10307000E1FC06C0E0FE06C090E205C09DE203C090
:103080009BE201C090E0EE2DE07183FF3CC0911106
:1030900002C083E001C084E0811718F4212F281BAF
:1030A00001C020E0E1110BC0F601822F30E288233D
:1030B00019F031938150FBCFC20ED11C20E099232F
:1030C00029F0D6019C93F60131966F01C601039653
:1030D000E2FE0AC03EE4D6013C9341E411964C93D3
:1030E000119712963C9306C03EE6F601308341E606
:1030F00041833283FC01322F40E2332309F442C082
:1031000041933150FACF82FF44C0911102C083E055
:1031100001C084E0811718F4212F281B01C020E092
:10312000E1110BC0F601822F30E2882319F03193B0
:103130008150FBCFC20ED11C20E0992329F0D6018B
:103140009C93F60131966F01C6010396E2FE0BC017
:1031500039E4D6013C933EE411963C93119736E452
:1031600012963C9307C039E6F60130833EE6318380
:1031700036E63283FC01322F40E2332319F04193CB
:103180003150FBCFFC01E20FF11D10828EEF9FEF5B
:10319000B7C0F1E0911101C0F0E06F2F70E014169C
:1031A000150624F49A012F5F3F4F02C021E030E062
:1031B000260F371FBB2029F06B2D70E06F5F7F4F0C
:1031C00002C060E070E0260F371F612F70E0261705
:1031D00037071CF4121B212F01C020E03E2D38714F
:1031E00059F4D601322F60E2332319F06D93315038
:1031F000FBCFC20ED11C20E0FF2331F0D6019C93FF
:10320000B6016F5F7F4F6B01E1110BC0F601922F8A
:1032100030E3992319F031939150FBCFC20ED11CAA
:1032200020E09F2D940F3A81782F7071A72E84FF94
:1032300003C0313309F49150191624F4993018F071
:1032400098E001C091E0E42F852F57FF02C0E0E035
:1032500080E06E2F782FE0E0F0E0AEE29A2E3A01A7
:10326000691A71082A01461A570A0B2D10E01195A8
:10327000019511096F3F8FEF780729F4D6019C92D1
:10328000C60101966C014617570784F0661677064B
:103290006CF47F01E40CF51CA1E0B0E0AC0FBD1FA5
:1032A000EA0EFB1ED7011196BC9002C090E3B92E26
:1032B000615071093196C60101967C016017710752
:1032C00024F0D601BC926C01D5CF6417750741F488
:1032D000363320F4353321F4A11002C081E3B82E37
:1032E000F601B082F701822F90E2882319F09193C2
:1032F0008150FBCFF701E20FF11D108280E090E0DA
:1033000029960FB6F894DEBF0FBECDBFDF91CF91E7
:103310001F910F91FF90EF90DF90CF90BF90AF90F3
:103320009F907F906F905F904F900895283008F0A5
:1033300027E03327DA01990F311D87FD9160009650
:103340006105710539F432602E5F3D9330E32A95B3
:10335000E1F708959F3F30F080387105610509F06D
:103360003C5F3C5F3D93913008F08068911DDF9396
:10337000CF931F930F93FF92EF92192F987F9695FB
:10338000E92F96959695E90FFF27EE53FF4F992762
:103390003327EE24FF24A701E70105900894079442
:1033A00028F4360FE71EF81E491F511D660F771FC0
:1033B000881F991F0694A1F70590079428F4E70E3B
:1033C000F81E491F561FC11D770F881F991F661FC2
:1033D0000694A1F70590079428F4F80E491F561F8C
:1033E000C71FD11D880F991F661F771F0694A1F76D
:1033F0000590079420F4490F561FC71FD81F990F37
:10340000661F771F881F0694A9F78491109517707F
:1034100041F0D695C79557954795F794E7941A9537
:10342000C1F7E8E6F0E06894159015913591659143
:10343000959105907FE27395E118F10A430B560BC5
:10344000C90BD009C0F7E10CF11E431F561FC91F5D
:10345000D01D7EF4703311F48A95E6CFE8940150C4
:1034600030F0080F0AF40027021708F4202F2395E4
:10347000022F7A3328F079E37D932A95E9F710C07B
:103480007D932A9589F606949795679537951795B4
:103490001794E118F10A430B560BC90BD00998F0A9
:1034A00023957E9173957A3308F070E37C93201313
:1034B000B8F77E9170617D9330F0839571E37D93D1
:1034C00070E32A95E1F71124EF90FF900F911F917F
:1034D000CF91DF91992787FD9095089591110C94D4
:1034E000331B803219F089508550C8F70895FC01CC
:1034F0000590615070400110D8F7809590958E0F1F
:103500009F1F0895FC016150704001900110D8F791
:10351000809590958E0F9F1F0895DC01FC01672F09
:1035200071917723E1F7329704C07C916D9370839A
:103530006291AE17BF07C8F308950F931F93CF93FF
:10354000DF93FB01238121FD03C08FEF9FEF28C094
:1035500022FF16C0468157812481358142175307C7
:1035600044F4A081B1819D012F5F3F4F31832083BF
:103570008C93268137812F5F3F4F3783268310C07E
:10358000EB01092F182F0084F185E02D0995892B77
:10359000E1F68E819F8101969F838E83812F902FEC
:1035A000DF91CF911F910F910895FA01AA2728303A
:1035B00051F1203181F1E8946F936E7F6E5F7F4F00
:1035C0008F4F9F4FAF4FB1E03ED0B4E03CD0670F7C
:1035D000781F891F9A1FA11D680F791F8A1F911DCF
:1035E000A11D6A0F711D811D911DA11D20D009F41F
:1035F00068943F912AE0269F11243019305D319361
:10360000DEF6CF010895462F4770405D4193B3E049
:103610000FD0C9F7F6CF462F4F70405D4A3318F0F0
:10362000495D31FD4052419302D0A9F7EACFB4E0A1
:10363000A6959795879577956795BA95C9F7009759
:103640006105710508959B01AC010A2E06945795FA
:10365000479537952795BA95C9F7620F731F841F51
:10366000951FA01D0895992788270895DC01CB0197
:10367000FC01F999FECF06C0F2BDE1BDF89A319682
:1036800000B40D9241505040B8F70895F999FECF1B
:1036900092BD81BDF89A992780B50895DC01A40FE9
:1036A000B51F4150504048F0CB01840F951F2E911B
:1036B0000E945F1B41505040D0F70895262FF99982
:1036C000FECF92BD81BDF89A019700B4021639F081
:1036D0001FBA20BD0FB6F894FA9AF99A0FBE089552
:1036E0002F923F924F925F926F927F928F929F9212
:1036F000AF92BF92CF92DF92EF92FF920F931F9300
:10370000CF93DF93CDB7DEB7CA1BDB0B0FB6F894B0
:10371000DEBF0FBECDBF09942A88398848885F84F0
:103720006E847D848C849B84AA84B984C884DF8061
:10373000EE80FD800C811B81AA81B981CE0FD11D45
:103740000FB6F894DEBF0FBECDBFED01089597FB15
:10375000072E16F4009407D077FD09D00E94BB1BFA
:1037600007FC05D03EF4909581959F4F0895709584
:1037700061957F4F0895AA1BBB1B51E107C0AA1F8B
:10378000BB1FA617B70710F0A61BB70B881F991F02
:103790005A95A9F780959095BC01CD010895EE0F3B
:1037A000FF1F0590F491E02D0994CF93DF938230B1
:1037B000910510F482E090E0E0917804F0917904B2
:1037C00020E030E0C0E0D0E0309711F1408151813D
:1037D00048175907C0F04817590761F4828193814F
:1037E000209719F09B838A832BC090937904809350
:1037F000780426C02115310519F04217530718F433
:103800009A01BE01DF01EF010280F381E02DDCCFE0
:103810002115310509F1281B390B2430310590F4AD
:1038200012968D919C9113976115710521F0FB0102
:103830009383828304C09093790480937804FD017C
:10384000329644C0FD01E20FF31F81939193225001
:1038500031092D933C933AC020917604309177043E
:10386000232B41F420911B0130911C0130937704EC
:10387000209376042091190130911A012115310508
:1038800041F42DB73EB740911D0150911E01241BFC
:10389000350BE0917604F0917704E217F307A0F47A
:1038A0002E1B3F0B2817390778F0AC014E5F5F4F96
:1038B0002417350748F04E0F5F1F5093770440934D
:1038C00076048193919302C0E0E0F0E0CF01DF91B4
:1038D000CF9108950F931F93CF93DF93009709F42F
:1038E0008CC0FC01329713821282009178041091EF
:1038F00079040115110581F420813181820F931F14
:1039000020917604309177042817390779F5F093E0
:103910007704E093760471C0D80140E050E0AE1720
:10392000BF0750F412962D913C911397AD012115CC
:10393000310509F1D901F3CF9D01DA0133832283E7
:1039400060817181860F971F8217930769F4EC01DC
:1039500028813981260F371F2E5F3F4F3183208307
:103960008A819B8193838283452B29F4F093790488
:10397000E093780442C01396FC93EE931297ED0106
:10398000499159919E01240F351FE217F30771F4F5
:1039900080819181840F951F029611969C938E933E
:1039A0008281938113969C938E931297E0E0F0E0CE
:1039B000D80112968D919C911397009719F0F801F8
:1039C0008C01F6CF8D919C9198012E5F3F4F820F15
:1039D000931F20917604309177042817390769F4F2
:1039E000309729F4109279041092780402C013825F
:1039F00012821093770400937604DF91CF911F9188
:103A00000F910895A0E0B0E0E8E0FDE10C94741B94
:103A1000EC01009721F4CB010E94D51BB8C0FC013A
:103A2000E60FF71F9C0122503109E217F30708F453
:103A3000ACC0D9010D911C91119706171707B0F072
:103A40000530110508F49FC0C80104978617970731
:103A500008F499C002501109061B170B019311932A
:103A60006D937C93CF010E946A1C8DC05B01A01AEC
:103A7000B10A4C01800E911EA0917804B091790496
:103A800040E050E0E12CF12C109709F44AC0A81551
:103A9000B905D1F56D907C901197630182E0C80E55
:103AA000D11CCA14DB0480F1A3014A195B096A0125
:103AB00082E0C80ED11C1296BC9012971396AC915E
:103AC000B5E0CB16D10440F0B282A383518340838A
:103AD000D9016D937C930AC00E5F1F4FC301800F05
:103AE000911FF90191838083EB2DFA2FE114F104EA
:103AF00031F0D7011396FC93EE93129744C0F093E4
:103B00007904E09378043FC08D919C9111974817F8
:103B1000590708F4AC017D0112960D90BC91A02DBF
:103B2000B3CF809176049091770488159905E1F4DC
:103B300046175707C8F48091190190911A01009710
:103B400041F48DB79EB740911D0150911E01841B19
:103B5000950BE817F907C8F4F0937704E09376041F
:103B6000F901718360830FC0CB010E94D51B7C01DA
:103B7000009759F0A801BE010E94D11DCE010E94FC
:103B80006A1CC70104C0CE0102C080E090E0CDB73E
:103B9000DEB7EEE00C94901B81E090E0F8940C947A
:103BA0003C21FB01DC0102C001900D9241505040CC
:103BB000D8F70895FB01DC0101900D920020E1F798
:103BC0000895FB01DC014150504048F001900D92F6
:103BD0000020C9F701C01D9241505040E0F7089500
:103BE000AEE0B0E0E6EFFDE10C947E1B0D891E898E
:103BF00086E08C831A8309838FEF9FE79E838D83F2
:103C0000AE01475E5F4F6F89788DCE0101960E94AD
:103C100036162F813885F801E20FF31F10822E9699
:103C2000E4E00C949A1BAEE0B0E0E9E1FEE10C9414
:103C3000801B85E08C838B899C899A838983AE0164
:103C4000495E5F4F6D897E89CE0101960E94AC1F4F
:103C50002E96E2E00C949C1B20FD09C0FC0123FD84
:103C600005C022FF02C0738362835183408308959D
:103C700044FD10C046FD10C0DB01FC01AA0FBB1FB4
:103C8000EE1FFF1F1094D1F76A0F7B1F8E1F9F1F1F
:103C900031E003C033E001C034E0660F771F881FB6
:103CA000991F3150D1F7620F711D811D911D08952B
:103CB0000F931F93CF93DF938C01C8010E94E520DF
:103CC000EC0197FD08C00E946E1A892BB1F7B8016C
:103CD000CE010E942321CE01DF91CF911F910F9140
:103CE0000895A1E0B0E0E7E7FEE10C94761B8C01BB
:103CF000C62E7A0129830E94E520AC01552729812F
:103D00004B32510521F04D32510569F42068CA94B7
:103D1000C11002C080E076C0C80129830E94E5205E
:103D2000298197FDF7CF322F3D7FD32E322F30736D
:103D300049F5803339F5BB24BA94BC0C09F44EC064
:103D4000C80129830E94E520298197FD47C0382FAB
:103D50003F7D383569F48D2D8264D82ECA94CA947B
:103D6000CC20E1F1C8010E94E52097FF0BC036C0CE
:103D700026FF04C02D2D2260D22E03C03D2D3261BE
:103D8000D32ECB2C812C912C540120ED280F2830E0
:103D900080F0D4FE04C0B8010E9423211CC02A3048
:103DA00040F0D6FEF8CF2F7D3FEE320F363098F739
:103DB00027504D2DC501B4010E94381E4B015C01F6
:103DC0008D2D8260D82ECA94CC2059F0C8010E9453
:103DD000E52097FFDACFD1FC04C09CCF812C912C39
:103DE0005401D7FE08C0B094A09490948094811C94
:103DF000911CA11CB11C2D2DB501A401C7010E946D
:103E00002C1E81E02196ECE00C94921BA1E2B0E024
:103E1000ECE0FFE10C94741B5C017A01CE01019689
:103E20006C0180E2F60111928A95E9F7F501838031
:103E300040E050E0912C712C70E0A1E0B0E0F9017D
:103E400083FC859183FE81918F01982F9F018111C1
:103E500003C080E090E07CC08E3519F44115510517
:103E600049F1E72FF0E0E417F5073CF48D3559F1FF
:103E70008D3219F4772001F103C0711001C0982E22
:103E8000892F8695869586958601080F111D892FA5
:103E900087703D0101C0660C8A95EAF7F8018081C0
:103EA00086298083991559F0991510F49F5FE8CF02
:103EB0009150E6CF71E004C07724739401C0712C57
:103EC0004F5F5F4FBCCF772019F08E8180628E8369
:103ED000711103C09924939416C0F6019E012F5DC1
:103EE0003F4F808180958193E217F307D1F7F2CF9E
:103EF000E114F10429F0F7018083C70101967C01E8
:103F00006150912CF9F0C50169A30E94E52069A1D7
:103F100097FD16C0282F269526952695F601E20FC7
:103F2000F11D208130E0AC014770552702C0359566
:103F300027954A95E2F720FDDBCFB5010E942321AA
:103F4000911087CFE114F10411F0F7011082C8013C
:103F5000A196EEE00C94901B4F925F927F928F920D
:103F60009F92AF92BF92CF92DF92EF92FF920F9308
:103F70001F93CF93DF931F92CDB7DEB76C012B0158
:103F80005A01FC0117821682712CF601F380F201AE
:103F9000F3FC8591F3FE8191382F2F01882309F4DA
:103FA000F3C090E039830E946E1A3981892B21F089
:103FB000C6010E94581EE9CF353241F4F201F3FCEC
:103FC0003591F3FE31912F01353269F4C601398301
:103FD0000E94E520398197FDD5C03817B1F2B601AE
:103FE0000E942321D1C03A3239F4F3FC3591F3FE1B
:103FF00031912F0151E001C050E0420110E020ED6D
:10400000230F2A3090F45260612F70E080E090E03E
:1040100040E259830E94381E162FF401F3FC3591BB
:10402000F3FE31914F015981EACF052F232F24014F
:1040300051FF03C0111102C0A7C01FEF383619F09D
:104040003C3659F011C0F401F3FC2591F3FE2191A7
:104050002F01283649F4052F08600460F201F3FCB3
:104060002591F3FE21912F01222309F48DC0622FA7
:1040700070E082E691E029830E94DA202981892B71
:1040800009F482C000FD07C0F501E080F180C501A0
:1040900002965C0102C0E12CF12C2E3651F4F6019F
:1040A0004681578160E070E0202FC7010E942C1EDE
:1040B0006CCF233691F401FF11E0C6010E94E52088
:1040C00097FD60C0E114F10429F0F7018083C70176
:1040D00001967C01115089F751C02B3559F492019A
:1040E000A701612FC6010E94061F2C01892B09F030
:1040F00045C03FC0C60129830E94581E298197FDF3
:1041000041C02F3659F128F4243631F1293649F1CE
:1041100027C0233769F02537F9F022C0E114F104F4
:1041200029F0F7018082C70101967C01115071F0DE
:10413000C6010E94E5204C0197FD08C00E946E1A3E
:10414000892B61F3B601C4010E942321E114F1041B
:10415000A9F0F701108212C0006203C0006101C023
:104160000064202FA701612FC6010E94711E8111DA
:1041700005C0F6018381807329F406C000FD05CFD8
:10418000739403CF772019F0872D90E002C08FEF52
:104190009FEF0F90DF91CF911F910F91FF90EF90C4
:1041A000DF90CF90BF90AF909F908F907F905F9067
:1041B0004F900895FC010590061621F00020D9F7D4
:1041C000C00108953197CF010895CF93DF93EC019B
:1041D0002B8120FF33C026FF0AC02F7B2B838E81CB
:1041E0009F8101969F838E838A8190E029C022FF60
:1041F0000FC0E881F9818081082E000C990B00978F
:1042000019F420622B831AC03196F983E8830EC01B
:10421000EA85FB85099597FF09C02B81019611F06E
:1042200080E201C080E1822B8B8308C02E813F8118
:104230002F5F3F4F3F832E83992702C08FEF9FEF61
:10424000DF91CF910895FB01238120FF12C026FD4D
:1042500010C08F3F3FEF930761F082832F7D206472
:10426000238326813781215031093783268399277B
:0C42700008958FEF9FEF0895F894FFCFA2
:10427C00FFFFFF00FCE1A8A874019503D303E5013F
:10428C00FF8601F303570D570D00007A04800000E0
:10429C00000000960CFF0B2E0CDD0C5F0C3D0C513E
:1042AC000C4F4B003B003C002573256300322E3134
:1042BC002E310046756E6B2D47424D20476174655B
:1042CC0077617920737461727465642E0A003C53B3
:0A42DC0020256420256420256400DD
:00000001FF
